{
  "_format": "hh-sol-artifact-1",
  "contractName": "CommunityFunding",
  "sourceName": "contracts/CommunityFunding.sol",
  "abi": [
    {
      "inputs": [],
      "stateMutability": "nonpayable",
      "type": "constructor"
    },
    {
      "inputs": [
        {
          "internalType": "address",
          "name": "owner",
          "type": "address"
        }
      ],
      "name": "OwnableInvalidOwner",
      "type": "error"
    },
    {
      "inputs": [
        {
          "internalType": "address",
          "name": "account",
          "type": "address"
        }
      ],
      "name": "OwnableUnauthorizedAccount",
      "type": "error"
    },
    {
      "anonymous": false,
      "inputs": [
        {
          "indexed": true,
          "internalType": "uint256",
          "name": "projectId",
          "type": "uint256"
        },
        {
          "indexed": true,
          "internalType": "address",
          "name": "donor",
          "type": "address"
        },
        {
          "indexed": false,
          "internalType": "uint256",
          "name": "amount",
          "type": "uint256"
        }
      ],
      "name": "DonationReceived",
      "type": "event"
    },
    {
      "anonymous": false,
      "inputs": [
        {
          "indexed": true,
          "internalType": "uint256",
          "name": "projectId",
          "type": "uint256"
        },
        {
          "indexed": true,
          "internalType": "address",
          "name": "creator",
          "type": "address"
        },
        {
          "indexed": false,
          "internalType": "uint256",
          "name": "amount",
          "type": "uint256"
        }
      ],
      "name": "FundsWithdrawn",
      "type": "event"
    },
    {
      "anonymous": false,
      "inputs": [
        {
          "indexed": true,
          "internalType": "address",
          "name": "previousOwner",
          "type": "address"
        },
        {
          "indexed": true,
          "internalType": "address",
          "name": "newOwner",
          "type": "address"
        }
      ],
      "name": "OwnershipTransferred",
      "type": "event"
    },
    {
      "anonymous": false,
      "inputs": [
        {
          "indexed": true,
          "internalType": "uint256",
          "name": "projectId",
          "type": "uint256"
        },
        {
          "indexed": true,
          "internalType": "address",
          "name": "creator",
          "type": "address"
        },
        {
          "indexed": false,
          "internalType": "string",
          "name": "title",
          "type": "string"
        },
        {
          "indexed": false,
          "internalType": "uint256",
          "name": "goal",
          "type": "uint256"
        },
        {
          "indexed": false,
          "internalType": "uint256",
          "name": "deadline",
          "type": "uint256"
        }
      ],
      "name": "ProjectCreated",
      "type": "event"
    },
    {
      "inputs": [
        {
          "internalType": "string",
          "name": "_title",
          "type": "string"
        },
        {
          "internalType": "string",
          "name": "_description",
          "type": "string"
        },
        {
          "internalType": "string",
          "name": "_category",
          "type": "string"
        },
        {
          "internalType": "uint256",
          "name": "_goal",
          "type": "uint256"
        },
        {
          "internalType": "uint256",
          "name": "_deadline",
          "type": "uint256"
        },
        {
          "internalType": "string",
          "name": "_location",
          "type": "string"
        },
        {
          "internalType": "string",
          "name": "_imageUrl",
          "type": "string"
        }
      ],
      "name": "createProject",
      "outputs": [
        {
          "internalType": "uint256",
          "name": "",
          "type": "uint256"
        }
      ],
      "stateMutability": "nonpayable",
      "type": "function"
    },
    {
      "inputs": [
        {
          "internalType": "uint256",
          "name": "_projectId",
          "type": "uint256"
        }
      ],
      "name": "donateToProject",
      "outputs": [],
      "stateMutability": "payable",
      "type": "function"
    },
    {
      "inputs": [
        {
          "internalType": "uint256",
          "name": "_projectId",
          "type": "uint256"
        }
      ],
      "name": "getProject",
      "outputs": [
        {
          "internalType": "uint256",
          "name": "id",
          "type": "uint256"
        },
        {
          "internalType": "string",
          "name": "title",
          "type": "string"
        },
        {
          "internalType": "string",
          "name": "description",
          "type": "string"
        },
        {
          "internalType": "string",
          "name": "category",
          "type": "string"
        },
        {
          "internalType": "uint256",
          "name": "goal",
          "type": "uint256"
        },
        {
          "internalType": "uint256",
          "name": "currentAmount",
          "type": "uint256"
        },
        {
          "internalType": "address",
          "name": "creator",
          "type": "address"
        },
        {
          "internalType": "uint256",
          "name": "deadline",
          "type": "uint256"
        },
        {
          "internalType": "uint256",
          "name": "createdAt",
          "type": "uint256"
        },
        {
          "internalType": "string",
          "name": "location",
          "type": "string"
        },
        {
          "internalType": "string",
          "name": "imageUrl",
          "type": "string"
        }
      ],
      "stateMutability": "view",
      "type": "function"
    },
    {
      "inputs": [],
      "name": "getProjectCount",
      "outputs": [
        {
          "internalType": "uint256",
          "name": "",
          "type": "uint256"
        }
      ],
      "stateMutability": "view",
      "type": "function"
    },
    {
      "inputs": [],
      "name": "owner",
      "outputs": [
        {
          "internalType": "address",
          "name": "",
          "type": "address"
        }
      ],
      "stateMutability": "view",
      "type": "function"
    },
    {
      "inputs": [
        {
          "internalType": "uint256",
          "name": "",
          "type": "uint256"
        }
      ],
      "name": "projects",
      "outputs": [
        {
          "internalType": "uint256",
          "name": "id",
          "type": "uint256"
        },
        {
          "internalType": "string",
          "name": "title",
          "type": "string"
        },
        {
          "internalType": "string",
          "name": "description",
          "type": "string"
        },
        {
          "internalType": "string",
          "name": "category",
          "type": "string"
        },
        {
          "internalType": "uint256",
          "name": "goal",
          "type": "uint256"
        },
        {
          "internalType": "uint256",
          "name": "currentAmount",
          "type": "uint256"
        },
        {
          "internalType": "address payable",
          "name": "creator",
          "type": "address"
        },
        {
          "internalType": "uint256",
          "name": "deadline",
          "type": "uint256"
        },
        {
          "internalType": "uint256",
          "name": "createdAt",
          "type": "uint256"
        },
        {
          "internalType": "string",
          "name": "location",
          "type": "string"
        },
        {
          "internalType": "string",
          "name": "imageUrl",
          "type": "string"
        }
      ],
      "stateMutability": "view",
      "type": "function"
    },
    {
      "inputs": [],
      "name": "renounceOwnership",
      "outputs": [],
      "stateMutability": "nonpayable",
      "type": "function"
    },
    {
      "inputs": [
        {
          "internalType": "address",
          "name": "newOwner",
          "type": "address"
        }
      ],
      "name": "transferOwnership",
      "outputs": [],
      "stateMutability": "nonpayable",
      "type": "function"
    },
    {
      "inputs": [
        {
          "internalType": "uint256",
          "name": "_projectId",
          "type": "uint256"
        }
      ],
      "name": "withdrawFunds",
      "outputs": [],
      "stateMutability": "nonpayable",
      "type": "function"
    }
  ],
  "bytecode": "0x6080604052600180553480156200001557600080fd5b5033600073ffffffffffffffffffffffffffffffffffffffff168173ffffffffffffffffffffffffffffffffffffffff16036200008c5760006040517f1e4fbdf7000000000000000000000000000000000000000000000000000000008152600401620000839190620001ad565b60405180910390fd5b6200009d81620000a460201b60201c565b50620001ca565b60008060009054906101000a900473ffffffffffffffffffffffffffffffffffffffff169050816000806101000a81548173ffffffffffffffffffffffffffffffffffffffff021916908373ffffffffffffffffffffffffffffffffffffffff1602179055508173ffffffffffffffffffffffffffffffffffffffff168173ffffffffffffffffffffffffffffffffffffffff167f8be0079c531659141344cd1fd0a4f28419497f9722a3daafe3b4186f6b6457e060405160405180910390a35050565b600073ffffffffffffffffffffffffffffffffffffffff82169050919050565b6000620001958262000168565b9050919050565b620001a78162000188565b82525050565b6000602082019050620001c460008301846200019c565b92915050565b61217180620001da6000396000f3fe6080604052600436106100865760003560e01c8063715018a611610059578063715018a61461014257806384144a44146101595780638da5cb5b14610196578063f0f3f2c8146101c1578063f2fde38b1461020857610086565b8063107046bd1461008b578063155dd5ee146100d25780633bcff3b0146100fb57806356adb06f14610126575b600080fd5b34801561009757600080fd5b506100b260048036038101906100ad91906112ba565b610231565b6040516100c99b9a999897969594939291906113c7565b60405180910390f35b3480156100de57600080fd5b506100f960048036038101906100f491906112ba565b610553565b005b34801561010757600080fd5b506101106107c1565b60405161011d9190611495565b60405180910390f35b610140600480360381019061013b91906112ba565b6107d6565b005b34801561014e57600080fd5b5061015761092b565b005b34801561016557600080fd5b50610180600480360381019061017b91906115e5565b61093f565b60405161018d9190611495565b60405180910390f35b3480156101a257600080fd5b506101ab610c31565b6040516101b89190611734565b60405180910390f35b3480156101cd57600080fd5b506101e860048036038101906101e391906112ba565b610c5a565b6040516101ff9b9a9998979695949392919061174f565b60405180910390f35b34801561021457600080fd5b5061022f600480360381019061022a9190611849565b611097565b005b600260205280600052604060002060009150905080600001549080600101805461025a906118a5565b80601f0160208091040260200160405190810160405280929190818152602001828054610286906118a5565b80156102d35780601f106102a8576101008083540402835291602001916102d3565b820191906000526020600020905b8154815290600101906020018083116102b657829003601f168201915b5050505050908060020180546102e8906118a5565b80601f0160208091040260200160405190810160405280929190818152602001828054610314906118a5565b80156103615780601f1061033657610100808354040283529160200191610361565b820191906000526020600020905b81548152906001019060200180831161034457829003601f168201915b505050505090806003018054610376906118a5565b80601f01602080910402602001604051908101604052809291908181526020018280546103a2906118a5565b80156103ef5780601f106103c4576101008083540402835291602001916103ef565b820191906000526020600020905b8154815290600101906020018083116103d257829003601f168201915b5050505050908060040154908060050154908060060160009054906101000a900473ffffffffffffffffffffffffffffffffffffffff1690806007015490806008015490806009018054610442906118a5565b80601f016020809104026020016040519081016040528092919081815260200182805461046e906118a5565b80156104bb5780601f10610490576101008083540402835291602001916104bb565b820191906000526020600020905b81548152906001019060200180831161049e57829003601f168201915b50505050509080600a0180546104d0906118a5565b80601f01602080910402602001604051908101604052809291908181526020018280546104fc906118a5565b80156105495780601f1061051e57610100808354040283529160200191610549565b820191906000526020600020905b81548152906001019060200180831161052c57829003601f168201915b505050505090508b565b6000600260008381526020019081526020016000209050818160000154146105b0576040517f08c379a00000000000000000000000000000000000000000000000000000000081526004016105a790611922565b60405180910390fd5b8060060160009054906101000a900473ffffffffffffffffffffffffffffffffffffffff1673ffffffffffffffffffffffffffffffffffffffff163373ffffffffffffffffffffffffffffffffffffffff1614610642576040517f08c379a0000000000000000000000000000000000000000000000000000000008152600401610639906119b4565b60405180910390fd5b6000816005015411610689576040517f08c379a000000000000000000000000000000000000000000000000000000000815260040161068090611a20565b60405180910390fd5b6000816005015490506000826005018190555060008260060160009054906101000a900473ffffffffffffffffffffffffffffffffffffffff1673ffffffffffffffffffffffffffffffffffffffff16826040516106e690611a71565b60006040518083038185875af1925050503d8060008114610723576040519150601f19603f3d011682016040523d82523d6000602084013e610728565b606091505b505090508061076c576040517f08c379a000000000000000000000000000000000000000000000000000000000815260040161076390611ad2565b60405180910390fd5b3373ffffffffffffffffffffffffffffffffffffffff16847ff440aec6b52895984d061d622e6edeba6210f7c3e059be920663140c084560d7846040516107b39190611495565b60405180910390a350505050565b6000600180546107d19190611b21565b905090565b600060026000838152602001908152602001600020905081816000015414610833576040517f08c379a000000000000000000000000000000000000000000000000000000000815260040161082a90611922565b60405180910390fd5b806007015442111561087a576040517f08c379a000000000000000000000000000000000000000000000000000000000815260040161087190611ba1565b60405180910390fd5b600034116108bd576040517f08c379a00000000000000000000000000000000000000000000000000000000081526004016108b490611c33565b60405180910390fd5b348160050160008282546108d19190611c53565b925050819055503373ffffffffffffffffffffffffffffffffffffffff16827f0b5b4c52969ff7329ecf7ee536409fda87812b15a8622bc6e8cdeab3aee14a263460405161091f9190611495565b60405180910390a35050565b61093361111d565b61093d60006111a4565b565b6000808511610983576040517f08c379a000000000000000000000000000000000000000000000000000000000815260040161097a90611cd3565b60405180910390fd5b4284116109c5576040517f08c379a00000000000000000000000000000000000000000000000000000000081526004016109bc90611d3f565b60405180910390fd5b6000885111610a09576040517f08c379a0000000000000000000000000000000000000000000000000000000008152600401610a0090611dab565b60405180910390fd5b6000875111610a4d576040517f08c379a0000000000000000000000000000000000000000000000000000000008152600401610a4490611e17565b60405180910390fd5b6000600154905060016000815480929190610a6790611e37565b91905055506040518061016001604052808281526020018a8152602001898152602001888152602001878152602001600081526020013373ffffffffffffffffffffffffffffffffffffffff1681526020018681526020014281526020018581526020018481525060026000838152602001908152602001600020600082015181600001556020820151816001019081610b01919061202b565b506040820151816002019081610b17919061202b565b506060820151816003019081610b2d919061202b565b506080820151816004015560a0820151816005015560c08201518160060160006101000a81548173ffffffffffffffffffffffffffffffffffffffff021916908373ffffffffffffffffffffffffffffffffffffffff16021790555060e082015181600701556101008201518160080155610120820151816009019081610bb4919061202b565b5061014082015181600a019081610bcb919061202b565b509050503373ffffffffffffffffffffffffffffffffffffffff16817f483013d4a1d5e8ba43089bda8f1a92b959e32d6fc582556f800267dd809e58938b8989604051610c1a939291906120fd565b60405180910390a380915050979650505050505050565b60008060009054906101000a900473ffffffffffffffffffffffffffffffffffffffff16905090565b6000606080606060008060008060006060806000600260008e81526020019081526020016000206040518061016001604052908160008201548152602001600182018054610ca7906118a5565b80601f0160208091040260200160405190810160405280929190818152602001828054610cd3906118a5565b8015610d205780601f10610cf557610100808354040283529160200191610d20565b820191906000526020600020905b815481529060010190602001808311610d0357829003601f168201915b50505050508152602001600282018054610d39906118a5565b80601f0160208091040260200160405190810160405280929190818152602001828054610d65906118a5565b8015610db25780601f10610d8757610100808354040283529160200191610db2565b820191906000526020600020905b815481529060010190602001808311610d9557829003601f168201915b50505050508152602001600382018054610dcb906118a5565b80601f0160208091040260200160405190810160405280929190818152602001828054610df7906118a5565b8015610e445780601f10610e1957610100808354040283529160200191610e44565b820191906000526020600020905b815481529060010190602001808311610e2757829003601f168201915b5050505050815260200160048201548152602001600582015481526020016006820160009054906101000a900473ffffffffffffffffffffffffffffffffffffffff1673ffffffffffffffffffffffffffffffffffffffff1673ffffffffffffffffffffffffffffffffffffffff1681526020016007820154815260200160088201548152602001600982018054610edb906118a5565b80601f0160208091040260200160405190810160405280929190818152602001828054610f07906118a5565b8015610f545780601f10610f2957610100808354040283529160200191610f54565b820191906000526020600020905b815481529060010190602001808311610f3757829003601f168201915b50505050508152602001600a82018054610f6d906118a5565b80601f0160208091040260200160405190810160405280929190818152602001828054610f99906118a5565b8015610fe65780601f10610fbb57610100808354040283529160200191610fe6565b820191906000526020600020905b815481529060010190602001808311610fc957829003601f168201915b50505050508152505090508c816000015114611037576040517f08c379a000000000000000000000000000000000000000000000000000000000815260040161102e90611922565b60405180910390fd5b806000015181602001518260400151836060015184608001518560a001518660c001518760e001518861010001518961012001518a61014001519b509b509b509b509b509b509b509b509b509b509b505091939597999b90929496989a50565b61109f61111d565b600073ffffffffffffffffffffffffffffffffffffffff168173ffffffffffffffffffffffffffffffffffffffff16036111115760006040517f1e4fbdf70000000000000000000000000000000000000000000000000000000081526004016111089190611734565b60405180910390fd5b61111a816111a4565b50565b611125611268565b73ffffffffffffffffffffffffffffffffffffffff16611143610c31565b73ffffffffffffffffffffffffffffffffffffffff16146111a257611166611268565b6040517f118cdaa70000000000000000000000000000000000000000000000000000000081526004016111999190611734565b60405180910390fd5b565b60008060009054906101000a900473ffffffffffffffffffffffffffffffffffffffff169050816000806101000a81548173ffffffffffffffffffffffffffffffffffffffff021916908373ffffffffffffffffffffffffffffffffffffffff1602179055508173ffffffffffffffffffffffffffffffffffffffff168173ffffffffffffffffffffffffffffffffffffffff167f8be0079c531659141344cd1fd0a4f28419497f9722a3daafe3b4186f6b6457e060405160405180910390a35050565b600033905090565b6000604051905090565b600080fd5b600080fd5b6000819050919050565b61129781611284565b81146112a257600080fd5b50565b6000813590506112b48161128e565b92915050565b6000602082840312156112d0576112cf61127a565b5b60006112de848285016112a5565b91505092915050565b6112f081611284565b82525050565b600081519050919050565b600082825260208201905092915050565b60005b83811015611330578082015181840152602081019050611315565b60008484015250505050565b6000601f19601f8301169050919050565b6000611358826112f6565b6113628185611301565b9350611372818560208601611312565b61137b8161133c565b840191505092915050565b600073ffffffffffffffffffffffffffffffffffffffff82169050919050565b60006113b182611386565b9050919050565b6113c1816113a6565b82525050565b6000610160820190506113dd600083018e6112e7565b81810360208301526113ef818d61134d565b90508181036040830152611403818c61134d565b90508181036060830152611417818b61134d565b9050611426608083018a6112e7565b61143360a08301896112e7565b61144060c08301886113b8565b61144d60e08301876112e7565b61145b6101008301866112e7565b81810361012083015261146e818561134d565b9050818103610140830152611483818461134d565b90509c9b505050505050505050505050565b60006020820190506114aa60008301846112e7565b92915050565b600080fd5b600080fd5b7f4e487b7100000000000000000000000000000000000000000000000000000000600052604160045260246000fd5b6114f28261133c565b810181811067ffffffffffffffff82111715611511576115106114ba565b5b80604052505050565b6000611524611270565b905061153082826114e9565b919050565b600067ffffffffffffffff8211156115505761154f6114ba565b5b6115598261133c565b9050602081019050919050565b82818337600083830152505050565b600061158861158384611535565b61151a565b9050828152602081018484840111156115a4576115a36114b5565b5b6115af848285611566565b509392505050565b600082601f8301126115cc576115cb6114b0565b5b81356115dc848260208601611575565b91505092915050565b600080600080600080600060e0888a0312156116045761160361127a565b5b600088013567ffffffffffffffff8111156116225761162161127f565b5b61162e8a828b016115b7565b975050602088013567ffffffffffffffff81111561164f5761164e61127f565b5b61165b8a828b016115b7565b965050604088013567ffffffffffffffff81111561167c5761167b61127f565b5b6116888a828b016115b7565b95505060606116998a828b016112a5565b94505060806116aa8a828b016112a5565b93505060a088013567ffffffffffffffff8111156116cb576116ca61127f565b5b6116d78a828b016115b7565b92505060c088013567ffffffffffffffff8111156116f8576116f761127f565b5b6117048a828b016115b7565b91505092959891949750929550565b600061171e82611386565b9050919050565b61172e81611713565b82525050565b60006020820190506117496000830184611725565b92915050565b600061016082019050611765600083018e6112e7565b8181036020830152611777818d61134d565b9050818103604083015261178b818c61134d565b9050818103606083015261179f818b61134d565b90506117ae608083018a6112e7565b6117bb60a08301896112e7565b6117c860c0830188611725565b6117d560e08301876112e7565b6117e36101008301866112e7565b8181036101208301526117f6818561134d565b905081810361014083015261180b818461134d565b90509c9b505050505050505050505050565b61182681611713565b811461183157600080fd5b50565b6000813590506118438161181d565b92915050565b60006020828403121561185f5761185e61127a565b5b600061186d84828501611834565b91505092915050565b7f4e487b7100000000000000000000000000000000000000000000000000000000600052602260045260246000fd5b600060028204905060018216806118bd57607f821691505b6020821081036118d0576118cf611876565b5b50919050565b7f50726f6a65637420646f6573206e6f7420657869737400000000000000000000600082015250565b600061190c601683611301565b9150611917826118d6565b602082019050919050565b6000602082019050818103600083015261193b816118ff565b9050919050565b7f4f6e6c79207468652070726f6a6563742063726561746f722063616e2077697460008201527f68647261772066756e6473000000000000000000000000000000000000000000602082015250565b600061199e602b83611301565b91506119a982611942565b604082019050919050565b600060208201905081810360008301526119cd81611991565b9050919050565b7f4e6f2066756e647320617661696c61626c6520746f2077697468647261770000600082015250565b6000611a0a601e83611301565b9150611a15826119d4565b602082019050919050565b60006020820190508181036000830152611a39816119fd565b9050919050565b600081905092915050565b50565b6000611a5b600083611a40565b9150611a6682611a4b565b600082019050919050565b6000611a7c82611a4e565b9150819050919050565b7f5472616e73666572206661696c65640000000000000000000000000000000000600082015250565b6000611abc600f83611301565b9150611ac782611a86565b602082019050919050565b60006020820190508181036000830152611aeb81611aaf565b9050919050565b7f4e487b7100000000000000000000000000000000000000000000000000000000600052601160045260246000fd5b6000611b2c82611284565b9150611b3783611284565b9250828203905081811115611b4f57611b4e611af2565b5b92915050565b7f50726f6a6563742066756e64696e672068617320656e64656400000000000000600082015250565b6000611b8b601983611301565b9150611b9682611b55565b602082019050919050565b60006020820190508181036000830152611bba81611b7e565b9050919050565b7f446f6e6174696f6e20616d6f756e74206d75737420626520677265617465722060008201527f7468616e207a65726f0000000000000000000000000000000000000000000000602082015250565b6000611c1d602983611301565b9150611c2882611bc1565b604082019050919050565b60006020820190508181036000830152611c4c81611c10565b9050919050565b6000611c5e82611284565b9150611c6983611284565b9250828201905080821115611c8157611c80611af2565b5b92915050565b7f476f616c206d7573742062652067726561746572207468616e207a65726f0000600082015250565b6000611cbd601e83611301565b9150611cc882611c87565b602082019050919050565b60006020820190508181036000830152611cec81611cb0565b9050919050565b7f446561646c696e65206d75737420626520696e20746865206675747572650000600082015250565b6000611d29601e83611301565b9150611d3482611cf3565b602082019050919050565b60006020820190508181036000830152611d5881611d1c565b9050919050565b7f5469746c652063616e6e6f7420626520656d7074790000000000000000000000600082015250565b6000611d95601583611301565b9150611da082611d5f565b602082019050919050565b60006020820190508181036000830152611dc481611d88565b9050919050565b7f4465736372697074696f6e2063616e6e6f7420626520656d7074790000000000600082015250565b6000611e01601b83611301565b9150611e0c82611dcb565b602082019050919050565b60006020820190508181036000830152611e3081611df4565b9050919050565b6000611e4282611284565b91507fffffffffffffffffffffffffffffffffffffffffffffffffffffffffffffffff8203611e7457611e73611af2565b5b600182019050919050565b60008190508160005260206000209050919050565b60006020601f8301049050919050565b600082821b905092915050565b600060088302611ee17fffffffffffffffffffffffffffffffffffffffffffffffffffffffffffffffff82611ea4565b611eeb8683611ea4565b95508019841693508086168417925050509392505050565b6000819050919050565b6000611f28611f23611f1e84611284565b611f03565b611284565b9050919050565b6000819050919050565b611f4283611f0d565b611f56611f4e82611f2f565b848454611eb1565b825550505050565b600090565b611f6b611f5e565b611f76818484611f39565b505050565b5b81811015611f9a57611f8f600082611f63565b600181019050611f7c565b5050565b601f821115611fdf57611fb081611e7f565b611fb984611e94565b81016020851015611fc8578190505b611fdc611fd485611e94565b830182611f7b565b50505b505050565b600082821c905092915050565b600061200260001984600802611fe4565b1980831691505092915050565b600061201b8383611ff1565b9150826002028217905092915050565b612034826112f6565b67ffffffffffffffff81111561204d5761204c6114ba565b5b61205782546118a5565b612062828285611f9e565b600060209050601f8311600181146120955760008415612083578287015190505b61208d858261200f565b8655506120f5565b601f1984166120a386611e7f565b60005b828110156120cb578489015182556001820191506020850194506020810190506120a6565b868310156120e857848901516120e4601f891682611ff1565b8355505b6001600288020188555050505b505050505050565b60006060820190508181036000830152612117818661134d565b905061212660208301856112e7565b61213360408301846112e7565b94935050505056fea2646970667358221220d018c7d3e90ac550b42740fcf9ec242f86c465c78f8517928a15b4fab43cdca464736f6c63430008140033",
  "linkReferences": {},
  "deployedLinkReferences": {}
}